:100000000C9478000C9499000C9499000C9499002D
:100010000C9499000C9499000C9499000C949900FC
:100020000C9499000C9499000C9499000C949900EC
:100030000C9499000C9499000C9499000C949900DC
:100040000C9499000C94CF050C9499000C94990091
:100050000C9499000C9499000C9499000C949900BC
:100060000C9499000C94C5050C9448050C949900C7
:100070000C9499000C9499000C9499000C9499009C
:100080000C9499000C9499000C9499000C9499008C
:100090000C94BB050C940E050C9499000C949900DB
:1000A0000C9499000C9499000C9499000C9499006C
:1000B0000C9499000C9499000C9499000C9499005C
:1000C0000C9499000C9499000C9499000C948C0554
:1000D0000C94D4040C9499000C9482050C949A040A
:1000E0000C9499000C94B0000C949B000C94800329
:1000F00011241FBECFEFD1E2DEBFCDBF00E00CBFA9
:1001000024E0A0E4B3E001C01D92AA3EB207E1F7EB
:1001100013E0A0E0B2E0E6ECFCE100E00BBF02C0BF
:1001200007900D92A034B107D9F70E9416060C94DF
:10013000610E0C94000090916104E92FF0E0EE59FB
:10014000FB4F80839F5F909361040895E2E6F4E0A3
:10015000119284E0E23EF807D9F710926104089505
:1001600020914B0430914C0421303105B9F040F01E
:1001700022303105D9F12330310509F464C00895E6
:100180008B3209F09AC081E090E090934C04809308
:100190004B0490934A0480934904089520914904A4
:1001A00030914A04F901EA5EFD4F4081042E000CB3
:1001B000550B8417150689F42430310539F482E093
:1001C00090E090934C0480934B0408952F5F3F4F31
:1001D00030934A0420934904089510924C041092DD
:1001E0004B0410924A0410924904089590ED980F20
:1001F0009A3098F440914704509148049AE0949FB3
:100200009001959F300D11248053990B820F931FFD
:10021000909348048093470408958A3359F483E007
:1002200090E090934C0480934B04109246041092FB
:100230004504089510924C0410924B041092480407
:10024000109247040895409145045091460420912E
:100250004704309148044217530774F4E091430473
:10026000F0914404BA016F5F7F4F7093460460932E
:100270004504E40FF51F8083809145049091460466
:1002800028173907D1F4E0914304F0914404E20FB8
:10029000F31F108210924C0410924B0410924804E9
:1002A0001092470410924604109245040E94A60042
:1002B000E0914104F091420419940895CF92DF92A5
:1002C000EF92FF92CF93DF93EB019C0150E040E06F
:1002D00060E271EA87E090E00E94960A69017A0183
:1002E0009E01A8EEB3E00E94B50A9601220F331FCB
:1002F00050E040E00E94740AE9011092B0001092B0
:10030000B10081EDC81687E0D80678F120E031E031
:1003100086E08093B100C701B60144E0660F771F05
:10032000881F991F4A95D1F750E040E00E94740A57
:1003300090E080E0179A1092B2003091B20032172C
:10034000E0F317981092B2003091B2003217E0F348
:1003500001968C179D0770F31092B100DF91CF9139
:10036000FF90EF90DF90CF90089520E830E085E097
:10037000D0CF80917A00806480937A0080917A0057
:1003800086FDFCCF8091780060917900762F682FF0
:1003900090E080E00E94500920E030EC4FE754E408
:1003A0000E94AF089B01AC0160E070E080E89FE331
:1003B0000E94420820E030E048EC52E40E94E30949
:1003C0000E942109862F089527E030E0482F50E051
:1003D000CA01022E02C0959587950A94E2F780FF24
:1003E00013C080910201806280930201909102010A
:1003F000906190930201909102019F7E909302017F
:100400002150310928F70895809102018F7DECCFAA
:100410008F929F92AF92BF92CF92DF92EF92FF9214
:100420000F931F93CF93DF93EA01F8949B01AC01E4
:1004300060E070E080E090E004E00E94230B59014E
:100440006A017B018C0120E034E244EF50E060E07F
:1004500070E080E090E00E94C60AC90101978730F1
:10046000910511F488E090E028E12093D10026E086
:100470002093D2009093D5008093D400209749F028
:10048000D093E704C093E6048091D1008068809304
:10049000D1007894DF91CF911F910F91FF90EF9051
:1004A000DF90CF90BF90AF909F908F900895EF9284
:1004B000FF920F931F93CF93DF93CDB7DEB7C05852
:1004C000D1090FB6F894DEBF0FBECDBF8C01E0900E
:1004D000E604F090E7046091E2047091E3048091F7
:1004E000E4049091E5044BE950E00E940802B80151
:1004F000CE0101960E945B0B6EE172E0CE01019687
:100500000E943C0BDC010D900020E9F7FC011197E3
:10051000EA17FB0709F055C000ED17E08FE39CE9EF
:100520000197F1F700C000006CE172E082E694E010
:100530000E94710B892B19F40150110979F78091F0
:10054000610403E010E0882301F161E272E082E6D9
:1005500094E00E94710B10E000E0892BB1F464E29A
:1005600072E082E694E00E94710B02E010E0892BB9
:1005700061F46AE272E082E694E00E94710B04E0AA
:1005800010E0892B11F001E010E00E94A6006091BC
:10059000E2047091E3048091E4049091E504A701E2
:1005A0000E940802C801C058DF4F0FB6F894DEBFA2
:1005B0000FBECDBFDF91CF911F910F91FF90EF90B4
:1005C000089521913091D00035FFFCCF2093D600C3
:1005D0009FCFCF92DF92EF92FF920F931F93CF9313
:1005E000DF93CDB7DEB7C758D1090FB6F894DEBF99
:1005F0000FBECDBF6C018B016FE272E0CE010196A0
:100600000E945B0B1F930F938BE392E09F938F935A
:100610007E0181E8E80EF11CFF92EF920E948B0BA5
:10062000B701CE0101960E943C0BCE0101960E94BB
:1006300057020F900F900F900F900F900F90F601B0
:100640000C0D1D1D0097B9F0C957DF4F0FB6F89478
:10065000DEBF0FBECDBFDF91CF911F910F91FF90F5
:10066000EF90DF90CF90089521913091D00035FF29
:10067000FCCF2093D6000E171F07B1F7E5CFEF92FE
:10068000FF920F931F93CF93DF93CDB7DEB7FE0199
:100690003A96819191918F0165E073E00E940F0875
:1006A000009749F490E080E0DF91CF911F910F9186
:1006B000FF90EF90089578010E5F1F4FD7012D91A5
:1006C0003C9121153105A9F40E5F1F4F0E94F107DF
:1006D000D7011296ED91FC919183808365E073E0E0
:1006E00090E080E00E940F080097D1F681E090E052
:1006F000DBCF2130310591F787010C5F1F4FE8CF29
:100700008F929F92AF92BF92CF92DF92EF92FF9221
:100710000F931F93CF93DF93CDB7DEB7CA50D2406C
:100720000FB6F894DEBF0FBECDBFCF5FDE4F19828C
:100730001882C150D1406CE270E080E493E00E94E6
:10074000470B7C01892B41F4E0E4F3E001900020A9
:10075000E9F7CF0101977C01F701E054F3405F0115
:10076000CE018D5F9E4F6C018E010F5F1F4FE031F8
:10077000F10508F484C082E091E0F801D60101900F
:100780000D920197E1F76EE372E0C6010E94520BF1
:10079000892B09F0A5C07E01E7EFEE1AEDEFFE0A06
:1007A000FF92EF921F9281E08F934E01F9EF8F1A23
:1007B000FDEF9F0A9F928F921F921F925E018BEF17
:1007C000A81A8DEFB80ABF92AF921F921F9290E1C4
:1007D000C90ED11CDF92CF920E943F03F7018181A5
:1007E0008F9380818F93F40181818F9380818F9388
:1007F000F50181818F9380818F9383E492E09F93B1
:100800008F931F930F930E948B0BF8010190002090
:10081000E9F73197BF01601B710BC8010E94E90223
:100820000FB6F894DEBF0FBECDBFF5018081918178
:10083000019709F04EC064E672E0F7018081918172
:100840000E94520B892B09F03FC069E170E08EE6EF
:1008500092E00E94E902C65FDD4F0FB6F894DEBF5A
:100860000FBECDBFDF91CF911F910F91FF90EF9001
:10087000DF90CF90BF90AF909F908F900895AF0181
:1008800060E473E0C8010E94620BF801EA0DFB1DF1
:100890001082B7016F5F7F4FFB0101900020E9F7E5
:1008A0003197E61BF70BE03FF10508F064CFCE016E
:1008B00041960E945B0B81E090E0CF5FDE4F998311
:1008C0008883C150D14057CF6BE170E088E892E057
:1008D000C0CF68EE73E088EC90E00E945E01BBCF71
:1008E00064EA72E0C6010E94520B892BF1F40E9467
:1008F000B9019F938F938CE393E09F938F931F9302
:100900000F930E948B0BF80101900020E9F73197BB
:10091000BF01601B710BC8010E94E9020F900F908C
:100920000F900F900F900F9096CFDF92CF928DEA9D
:1009300092E0E3CF1F920F920FB60F9211240BB6E5
:100940000F922F933F938F939F93EF93FF93209159
:100950005F043091600480915D0490915E042817DB
:100960003907D0F4E0915F04F0916004CF01019663
:100970009093600480935F04808180933601FF919F
:10098000EF919F918F913F912F910F900BBE0F9000
:100990000FBE0F901F901895809131018F7D80932D
:1009A000310110925C04EBCF1F920F920FB60F92A1
:1009B00011240BB60F922F933F938F939F93EF9336
:1009C000FF9320915A0430915B04809158049091D8
:1009D000590428173907D0F4E0915604F0915704D0
:1009E000CF010196909357048093560480818093A1
:1009F000D600FF91EF919F918F913F912F910F9092
:100A00000BBE0F900FBE0F901F9018958091D100D4
:100A10008F7D8093D10010925504EBCF1F920F92DF
:100A20000FB60F9211240BB60F922F933F938F9313
:100A30009F93EF93FF93209153043091540480913E
:100A400051049091520428173907D0F4E0915304CF
:100A5000F0915404CF010196909354048093530471
:100A600080818093CE00FF91EF919F918F913F9174
:100A70002F910F900BBE0F900FBE0F901F901895E7
:100A80008091C9008F7D8093C90010925004EBCFF4
:100A90001F920F920FB60F9211240BB60F922F9345
:100AA0003F938F939F93EF93FF9320915604309140
:100AB000570480914E0490914F0428173907D0F4C1
:100AC000E0915604F0915704CF010196909357049A
:100AD0008093560480818093C600FF91EF919F918F
:100AE0008F913F912F910F900BBE0F900FBE0F90E3
:100AF0001F9018958091C1008F7D8093C100109246
:100B00004D04EBCF1F920F920FB60F9211240F904E
:100B10000FBE0F901F9018951F920F920FB60F9255
:100B200011240BB60F922F933F934F935F936F93C4
:100B30007F938F939F93AF93BF93EF93FF93E09136
:100B4000E604F091E704309719F08091D6001995EA
:100B5000FF91EF91BF91AF919F918F917F916F9195
:100B60005F914F913F912F910F900BBE0F900FBE51
:100B70000F901F9018951F920F920FB60F9211248D
:100B80000F900FBE0F901F9018951F920F920FB6E7
:100B90000F9211240F900FBE0F901F9018951F9267
:100BA0000F920FB60F9211240BB60F922F933F9313
:100BB0004F935F936F937F938F939F93AF93BF9365
:100BC000CF93EF93FF93A598C0914004EC2FF0E0F2
:100BD000E050FE4FE081F0E0EC5FFD4F80818095BA
:100BE0000E94E40181E001C0880FCA95EAF70E94E3
:100BF000E401A59A8091400490E0019683709927C2
:100C000080934004FF91EF91CF91BF91AF919F915D
:100C10008F917F916F915F914F913F912F910F90A5
:100C20000BBE0F900FBE0F901F901895CF93DF93C0
:100C3000CDB7DEB7C758D1090FB6F894DEBF0FBEE7
:100C4000CDBF81E480937C0028E020937B0092E07C
:100C500090937D0080E880937A0080910A018068FB
:100C600080930A019D9A8091010180628093010125
:100C700080910101806180930101809181008860F1
:100C8000809381004FEC57E0509389004093880097
:100C900080916F00826080936F00809181008260FC
:100CA00080938100789481E1809303028093020213
:100CB000809301028093000280B3817F80BB81B367
:100CC0008E6081BB0F9A40E052EC61E070E040938F
:100CD000E2045093E3046093E4047093E504F89411
:100CE00088E18093D10086E08093D2001092D500F5
:100CF0002093D400789481E08093000290930102C5
:100D000083E08093020284E08093030262EC72E04D
:100D10008E010F5F1F4FC8010E945B0B6DEC72E0EC
:100D2000C8010E943C0B61EF72E0C8010E943C0BBD
:100D300068ED72E0C8010E943C0B63EF72E0C801ED
:100D40000E943C0BC8010E94570280E493E09093FC
:100D500044048093430480E893E09093420480939A
:100D6000410461EE72E0C8010E945B0B65EF72E026
:100D7000C8010E943C0B64E073E0C8010E943C0B78
:100D80001F9287E18F938BE392E09F938F937E0175
:100D900021E8E20EF11CFF92EF920E948B0BB7014B
:100DA000C8010E943C0BC8010E9457020F900F908F
:100DB0000F900F900F900F90892B71F46091E204C7
:100DC0007091E3048091E4049091E50440EB50E0DD
:100DD0000E9408020E94A60087E093E07C01FF24A5
:100DE00084E0B82E9DE7492E512C612C712C24E211
:100DF000C22E23E0D22E799914C0F7010190002071
:100E0000E9F73197BF016E197F09C7010E94E90216
:100E10008FEF97EA21E6815090402040E1F700C033
:100E200000007A9966C068EC70E086E091E00E946C
:100E30005E0168EC70E084EC90E00E945E0168EC7A
:100E400070E085EA90E00E945E0168EC70E08CED55
:100E500090E00E945E0168EC70E087EF90E00E94F5
:100E60005E0168EC70E089EE90E00E945E0168EC43
:100E700070E08CED90E00E945E0168EC70E084EC24
:100E800090E00E945E0168EC70E08AE491E00E94CC
:100E90005E0168EC70E088E891E00E945E0168EC19
:100EA00070E088EB91E00E945E0168EC70E08DE5F7
:100EB00091E00E945E0168EC70E088E891E00E9499
:100EC0005E0168EC70E08AE491E00E945E0168ECEB
:100ED00070E086E091E00E945E0168EC70E086E2DE
:100EE00091E00E945E0168EC70E087EF90E00E9464
:100EF0005E017B9980CF85E38A95F1F700008091B0
:100F00000B01806880930B0195E39A95F1F700003F
:100F100080910B018F7780930B01A0908100B0929C
:100F2000810010928500109284008091090186FF53
:100F300045C010928500109284008091090186FFBF
:100F400010C0609184007091850090E080E00E9464
:100F5000500920E030E84BEB54E40E94DE0987FDA5
:100F6000ECCF2091840030918500A0928100A7E50C
:100F7000B1E00E94B50AA30192010E94740AA22E58
:100F8000932E0E94B9019F92AF921F928F93DF928E
:100F9000CF921F930F930E948B0BF80101900020BA
:100FA000E9F73197BF01601B710BC8010E94E9028C
:100FB0000FB6F894DEBF0FBECDBF1DCF6091840089
:100FC0007091850090E080E00E94500920E030E5BB
:100FD00043EC55E40E94DE0987FDA7CFA12C912C9C
:100FE000D0CFFC0188279927E89421912032E9F39A
:100FF000293010F02E30C8F32B3241F02D3239F465
:10100000689404C00E943A08820F911D21912053D8
:101010002A30C0F31EF4909581959F4F089548EEB5
:1010200054E00C941308FA01A191B081009719F4CF
:101030001097E1F0CD01DC01CD010D90002011F4FD
:10104000C00113C0FB012191222319F02015D9F70B
:10105000F3CFFB012191201519F41E92119606C0C1
:101060002223C1F70D900020A1F7D001FA01A1932E
:10107000B08308957AE0979F902D879F802D910DE2
:10108000112408955058BB27AA270E945A080C948F
:10109000A4090E94960938F00E949D0920F039F4B5
:1010A0009F3F19F426F40C9493090EF4E095E7FBA6
:1010B0000C948D09E92F0E94B50958F3BA176207FD
:1010C00073078407950720F079F4A6F50C94D709E7
:1010D0000EF4E0950B2EBA2FA02D0B01B901900153
:1010E0000C01CA01A0011124FF27591B99F0593F97
:1010F00050F4503E68F11A16F040A22F232F342FDF
:101100004427585FF3CF469537952795A795F0402C
:101110005395C9F77EF41F16BA0B620B730B840B41
:10112000BAF09150A1F0FF0FBB1F661F771F881FF9
:10113000C2F70EC0BA0F621F731F841F48F4879551
:1011400077956795B795F7959E3F08F0B0CF939543
:10115000880F08F09927EE0F9795879508950E94BC
:10116000C3080C94A4090E949D0958F00E94960996
:1011700040F029F45F3F29F00C948D0951110C9433
:10118000D8090C9493090E94B50968F39923B1F327
:10119000552391F3951B550BBB27AA27621773079D
:1011A000840738F09F5F5F4F220F331F441FAA1F31
:1011B000A9F335D00E2E3AF0E0E832D091505040ED
:1011C000E695001CCAF72BD0FE2F29D0660F771F9B
:1011D000881FBB1F261737074807AB07B0E809F081
:1011E000BB0B802DBF01FF2793585F4F3AF09E3F06
:1011F000510578F00C948D090C94D8095F3FE4F305
:10120000983ED4F3869577956795B795F7959F5F48
:10121000C9F7880F911D9695879597F90895E1E094
:10122000660F771F881FBB1F621773078407BA07F3
:1012300020F0621B730B840BBA0BEE1F88F7E0954E
:1012400008950E94BD0988F09F5798F0B92F9927FB
:10125000B751B0F0E1F0660F771F881F991F1AF0A1
:10126000BA95C9F714C0B13091F00E94D709B1E026
:1012700008950C94D709672F782F8827B85F39F025
:10128000B93FCCF3869577956795B395D9F73EF43A
:1012900090958095709561957F4F8F4F9F4F0895E2
:1012A000E89409C097FB3EF4909580957095619500
:1012B0007F4F8F4F9F4F9923A9F0F92F96E9BB27B6
:1012C0009395F695879577956795B795F111F8CF32
:1012D000FAF4BB0F11F460FF1BC06F5F7F4F8F4F9D
:1012E0009F4F16C0882311F096E911C0772321F093
:1012F0009EE8872F762F05C0662371F096E8862F2B
:1013000070E060E02AF09A95660F771F881FDAF781
:10131000880F9695879597F9089597F99F6780E8C4
:1013200070E060E008959FEF80EC089500240A9437
:101330001616170618060906089500240A941216B0
:101340001306140605060895092E0394000C11F4E3
:10135000882352F0BB0F40F4BF2B11F460FF04C090
:101360006F5F7F4F8F4F9F4F089557FD9058440FE9
:10137000551F59F05F3F71F04795880F97FB991FF4
:1013800061F09F3F79F087950895121613061406B1
:10139000551FF2CF4695F1DF08C01616170618063E
:1013A000991FF1CF86957105610508940895E89419
:1013B000BB2766277727CB0197F908950E94500A2B
:1013C00008F48FEF08950E94F6090C94A4090E9476
:1013D000960938F00E949D0920F0952311F00C9495
:1013E0008D090C94930911240C94D8090E94B50915
:1013F00070F3959FC1F3950F50E0551F629FF00168
:10140000729FBB27F00DB11D639FAA27F00DB11D80
:10141000AA1F649F6627B00DA11D661F829F222709
:10142000B00DA11D621F739FB00DA11D621F839F90
:10143000A00D611D221F749F3327A00D611D231F66
:10144000849F600D211D822F762F6A2F11249F57B4
:1014500050409AF0F1F088234AF0EE0FFF1FBB1FB7
:10146000661F771F881F91505040A9F79E3F510576
:1014700080F00C948D090C94D8095F3FE4F3983EFA
:10148000D4F3869577956795B795F795E7959F5F20
:10149000C1F7FE2B880F911D9695879597F90895B2
:1014A000990F0008550FAA0BE0E8FEEF1616170675
:1014B000E807F907C0F012161306E407F50798F0DD
:1014C000621B730B840B950B39F40A2661F0232BF6
:1014D000242B252B21F408950A2609F4A140A69572
:1014E0008FEF811D811D0895A1E21A2EAA1BBB1B3F
:1014F000FD010DC0AA1FBB1FEE1FFF1FA217B307E0
:10150000E407F50720F0A21BB30BE40BF50B661FF5
:10151000771F881F991F1A9469F7609570958095B9
:1015200090959B01AC01BD01CF010895052E97FB5D
:101530001EF400940E94AD0A57FD07D00E94740A61
:1015400007FC03D04EF40C94AD0A509540953095AD
:1015500021953F4F4F4F5F4F08959095809570951F
:1015600061957F4F8F4F9F4F0895A29FB001B39F0A
:10157000C001A39F700D811D1124911DB29F700D9C
:10158000811D1124911D0895689401C0E8948F92E3
:101590009F92CF93DF930E94D20ADF91CF919F90C9
:1015A0008F90089588249924F401E401B0E49F9376
:1015B000AA279A158B049C04ED05FE05CF05D007DC
:1015C000A10798F4AD2FDC2FCF2FFE2FE92D982CFB
:1015D000892E982F872F762F652F542F432F322F48
:1015E0002227B85031F7BF9127C01B2EBF91BB27D0
:1015F000220F331F441F551F661F771F881F991F17
:10160000881C991CEE1FFF1FCC1FDD1FAA1FBB1FCC
:101610008A149B04EC05FD05CE05DF05A007B10784
:1016200048F08A189B08EC09FD09CE09DF09A00BD8
:10163000B10B21601A94E1F62EF49401AF01BE01C2
:10164000CD01000C0895002E083090F0982F872FC0
:10165000762F652F542F432F322F22270850F4CF97
:10166000220F331F441F551F661F771F881F991FA6
:101670000A95B2F7002D0895FB01DC010D900020C2
:10168000E9F7119701900D920020E1F70895FC0110
:101690008191861721F08823D9F7992708953197EA
:1016A000CF010895FB01DC018D910190801901109B
:1016B000D9F3990B0895FB01DC0101900D920020F4
:1016C000E1F70895FB01DC014150504048F00190E2
:1016D0000D920020C9F701C01D9241505040E0F723
:1016E0000895FB0151915523A9F0BF01DC014D91F3
:1016F00045174111E1F759F4CD010190002049F05F
:101700004D9140154111C9F3FB014111EFCF81E02B
:1017100090E0019708950F931F93CF93DF93CDB778
:10172000DEB72E970FB6F894DEBF0FBECDBF0E8981
:101730001F8986E08C831A8309838FEF9FE79E833E
:101740008D83AE01465E5F4F688D798DCE01019627
:101750000E94BB0B2F813885020F131FF8011082E6
:101760002E960FB6F894DEBF0FBECDBFDF91CF919E
:101770001F910F9108952F923F924F925F926F9217
:101780007F928F929F92AF92BF92CF92DF92EF9211
:10179000FF920F931F93CF93DF9300D000D000D020
:1017A0001F921F92CDB7DEB77C013B018A01FC017D
:1017B00017821682838181FFDDC1CE0101965C0113
:1017C000F7019381F30193FD859193FF81913F018F
:1017D000882309F453C1853239F493FD859193FF31
:1017E00081913F01853229F4B70190E00E94D30D29
:1017F000E7CF912C212C312CFFE1F31538F08B32FF
:1018000011F190F4803209F1833229F137FC3CC0A8
:1018100020ED280F2A3050F536FE20C08AE0989E31
:10182000200D1124922E06C08D3291F0803371F775
:10183000689430F8F30193FD859193FF81913F0106
:101840008111DACF21C0689431F8689432F8F2CF70
:10185000689433F8EFCF689434F8ECCFEAE02E9E2A
:10186000200D1124222E689435F8E4CF8E3229F40D
:1018700036FC04C1689436F8DDCF8C3619F46894D0
:1018800037F8D8CF8836B1F2982F9F7D9554933092
:10189000E0F08336A1F18337C1F1833509F063C0ED
:1018A0002801F2E04F0E511CF801C080D180692D53
:1018B00070E036FC02C06FEF7FEFC6010E94BD0DE5
:1018C0004C01689437F882010AC00C5F1F4FFFE398
:1018D000F98388248394912C6501E89437F833FECA
:1018E0002DC0522C8114910471F5552009F468CF54
:1018F000B70180E290E00E94D30D5A94F6CFF80130
:10190000808189830E5F1F4FE4CF2801F2E04F0EE4
:10191000511CF801C080D180692D70E036FC02C0F6
:101920006FEF7FEFC6010E94C80D4C018201D5CF39
:10193000B70180E290E00E94D30D2A942814190484
:1019400009F0B0F7CECFF60137FC859137FE8191D3
:101950006F01B70190E00E94D30D51105A94F1E04D
:101960008F1A9108BFCF843619F0893609F077C0F5
:10197000F80137FE6BC060817181828193810C5FB9
:101980001F4FF32DFF763F2E97FF09C0909580954E
:10199000709561957F4F8F4F9F4F689437F82AE07D
:1019A00030E0A5010E94030EC82ECA188C2C432CCF
:1019B00036FE0CC0E89440F8C91440F434FE05C06B
:1019C00032FC03C0F32DFE7E4F2E892C44FEAAC0AC
:1019D000FE01EC0DF11D8081803309F09CC0242DA7
:1019E000297E422E842D8870582E43FCAAC040FECA
:1019F000A4C09C2C821418F42C0C922C981844FE31
:101A0000A6C0B70180E390E00E94D30D42FE09C05A
:101A100088E790E041FE02C088E590E0B7010E94AF
:101A2000D30DC91408F49FC0CA94D12C9FEFC91AD2
:101A3000D90ACA0CDB1CF60182916F01B70190E054
:101A40000E94D30DAC14BD04B1F74FCF60817181FA
:101A5000072E000C880B990B0E5F1F4F92CFD32CD3
:101A6000E894D4F82AE030E08537E1F1232D297F8E
:101A7000D22E8F36A9F1F0F4883551F1F701868125
:101A800097812B960FB6F894DEBF0FBECDBFDF91C6
:101A9000CF911F910F91FF90EF90DF90CF90BF906B
:101AA000AF909F908F907F906F905F904F903F90FE
:101AB0002F900895803749F0883701F7D4FE02C08F
:101AC0006894D2F820E130E00DC06894D4F8F6CFE5
:101AD00034FE03C0822F8660D82E20E132E002C09F
:101AE00028E030E0F801D7FE0FC06081718182816B
:101AF00093810C5F1F4FA5010E94030EC82ECA18C8
:101B00003D2CE89437F852CF6081718190E080E0FD
:101B10000E5F1F4FF0CF42FC02C0839463CF8394CB
:101B2000839460CF842D867809F45CCFF6CFB7011B
:101B300080E290E00E94D30D83948214C0F3512C74
:101B40005ECF522C5818821408F459CFF8CF842D48
:101B5000867809F466CF8BE241FE80E247FC8DE295
:101B6000B70190E05CCFB70180E390E00E94D30D15
:101B70009A9457CF8FEF9FEF84CFFC01059061506F
:101B800070400110D8F7809590958E0F9F1F089593
:101B9000FC016150704001900110D8F7809590953C
:101BA0008E0F9F1F08950F931F93CF93DF93182FCE
:101BB000092FEB018B8181FD09C01FEF0FEF812FF2
:101BC000902FDF91CF911F910F91089582FF14C044
:101BD0002E813F818C819D81281739073CF4E88153
:101BE000F981CF0101969983888310838E819F812B
:101BF00001969F838E83E3CFE885F985812F199520
:101C0000892BA1F3DACFFA01AA27283051F120312C
:101C100081F1E8946F936E7F6E5F7F4F8F4F9F4F80
:101C2000AF4FB1E03ED0B4E03CD0670F781F891FC2
:101C30009A1FA11D680F791F8A1F911DA11D6A0F90
:101C4000711D811D911DA11D20D009F468943F9143
:101C50002AE0269F11243019305D3193DEF6CF0142
:101C60000895462F4770405D4193B3E00FD0C9F708
:101C7000F6CF462F4F70405D4A3318F0495D31FD75
:101C80004052419302D0A9F7EACFB4E0A6959795C8
:101C9000879577956795BA95C9F70097610571059E
:101CA00008959B01AC010A2E0694579547953795E8
:101CB0002795BA95C9F7620F731F841F951FA01D42
:061CC0000895F894FFCF27
:101CC600030303033F065B4F666D7D077F6F777CDB
:101CD600395E797140002B4950442C004F4B0D0A58
:101CE600004F4B004552524F52004641494C00416D
:101CF600542B43495053454E443D00257500706CA6
:101D0600617900736F6E673A2025642C20726570C6
:101D16006561743A2025642C20616C62756D3A20E9
:101D260025730A0053746172205761727300504C18
:101D36004159494E473A2053746172205761727374
:101D4600205468656D650A00504C4159494E473A22
:101D5600205375706572204D6172696F20546865F5
:101D66006D650A006D6F69737475726500494E562C
:101D7600414C494420434F4D4D414E443A20257332
:101D86000A0041542B43574A41503D22004A4F49CD
:101D960049494E20494F54006278777731343832BA
:101DA6000041542B43495053544152543D2254430D
:101DB60050222C22003139322E3136382E34332E31
:101DC60032323100222C0048656C6C6F2066726FCF
:101DD6006D2041726475696E6F206F766572204C56
:101DE600414E0A006D6F6973747572653A202564F9
:101DF6002C2064697374616E63653A2025640A0059
:00000001FF
